:1000000052C06CC06BC0D9C369C0D8C367C066C0DA
:1000100065C08CC163C062C061C060C05FC05EC0AB
:100020005DC05CC05BC05AC059C058C057C056C004
:1000300055C054C038C63EC643C648C659C664C635
:100040009CC6C7C6BBC68B0C08090A08090A080962
:100050000A08090A08090A08090A8C4F0001020364
:1000600004390538360E040404040604001F020493
:100070000810110E000E11100804081F0008081FB8
:10008000090A0C08000E1110100F011F00020202D5
:100090000408101F000F11110F11110F000A151580
:1000A00015111111000011241FBECFEFD4E0DEBFE7
:1000B000CDBF11E0A0E0B1E0E6E8FFE002C00590AE
:1000C0000D92A032B107D9F711E0A0E2B1E001C072
:1000D0001D92A934B107E1F702D053C791CF1F9306
:1000E00087EA809364001AB88AB187B987B184B966
:1000F0008FEF8BB98BB188B988B185B9D8D0AFD122
:10010000F2D17DD281E0EAD080E0E8D084E0E6D090
:1001100083E0E4D08CE0A2D079D4789417E0BAD20E
:1001200088D4FDD08823D9F713BF889583B7817011
:1001300083BFF5CF009711F400C008950197F1F740
:100140000895589A00C0589808951F93DF93CF934D
:100150000F92CDB7DEB7662311F0449A01C04498E0
:10016000459897B19F6097B918B1107F982F9295D5
:100170009F70912B98B98983E4DF89818F70812BDF
:1001800088B9DFDF1F6018B90F90CF91DF911F9101
:1001900008954498459A87B1807F87B9589A00C0DE
:1001A00086B1589800C0589A00C096B19F70829549
:1001B000807F5898892B0895ECDF87FDFDCF80E084
:1001C00090E0B8DFE6DF08951F93182FF5DF812F49
:1001D00060E0BBDF1F9108951F93182FEDDF812F83
:1001E00061E0B3DF1F910895662311F4805801C0C8
:1001F0008054EADF0895E0DF90E0089581E0E4DFD5
:10020000089582E0E1DF08951F93182FD5DF1A309B
:1002100041F4803410F480E401C080E08058D4DFE1
:1002200003C0812F61E091DF1F910895CF93DF9389
:10023000EC0101C0E9DF89918823E1F7DF91CF91DB
:100240000895CF93DF93EC0101C0DEDFFE0121961C
:1002500084918823D1F7DF91CF9108951F93182FB0
:1002600087B18F6087B93C9A3D9A509A80EA9FE0A7
:1002700061DF419A409A65DF80EE94E05BDF61DFE9
:1002800089E190E057DF5DDF89E190E053DF40983E
:1002900058DF89E190E04EDF88E296DF88E094DF66
:1002A000ADDF86E091DF812F8FDF1F91089583E01E
:1002B0008093B0008FE08093B1008CE78093B3000F
:1002C00081E0809370000895909148016115710557
:1002D00011F0FB019083981B892F08959FB7F89424
:1002E00021E030E002C0220F331F8A95E2F78091AF
:1002F0002001822B809320019FBF08959FB7F8941F
:1003000021E030E002C0220F331F8A95E2F72095EA
:10031000809120018223809320019FBF089581E076
:1003200090912001992309F480E008951F920F9283
:100330000FB60F9211242F933F934F935F936F93B8
:100340007F938F939F93AF93BF93EF93FF9380918E
:100350002101982F905F909321019D3740F08D5699
:1003600080932101809148018F5F809348018091A3
:10037000200180FD94D08091200181FDC8D0809122
:10038000200183FF23C0E4E3F1E021E09BE38281CD
:100390008823B9F08481803118F08051848311C0A2
:1003A000835984838181882319F08150818309C016
:1003B0008081882321F081508083918302C0128242
:1003C0002383359681E0E834F80709F7809120010E
:1003D00084FD2DD1FF91EF91BF91AF919F918F91AE
:1003E0007F916F915F914F913F912F910F900FBE31
:1003F0000F901F901895E0912301F0912401E49152
:100400008E2F8695869586958F7080932201E77052
:10041000E53008F583E480938000E23079F0E33042
:1004200018F4E13029F407C0E33059F0E43061F00A
:100430008FE694E00BC082E593E008C085EF92E080
:1004400005C083ED90E002C081E090E090938900C8
:1004500080938800089583E080938000089583E06E
:100460008093800089E180938100E4E6F0E0808160
:10047000886080832998219A08951F931FB7F89464
:100480009093240180932301E4E6F0E08081877F4C
:100490008083B1DF80E022DF1FBF1F91089580912C
:1004A0002201882319F0815080932201809122013A
:1004B0008823C1F4E0912301F0912401849187FD08
:1004C00007C03196F0932401E093230194DF08954F
:1004D00083E08093800080E011DF80916400886079
:1004E000809364000895E0E0F1E0A281B3819C91E3
:1004F0008481982B9C93A081B1819C9180958923C4
:100500008C93359681E0E431F80779F708952091CE
:100510002601243090F4822F90E0FC01EE0FFF1FA3
:10052000EE0FFF1FE80FF91FE050FF4FA081B181D0
:100530009C918481809589238C932F5F2093260141
:100540002D3010F010922601409126014430D8F44D
:10055000242F30E08091250190E002C09595879589
:100560004A95E2F780FF0FC0F901EE0FFF1FEE0F73
:10057000FF1FE20FF31FE050FF4FA081B1818C916C
:100580009481892B8C93089521E030E002C0220FE2
:10059000331F8A95E2F780912501822B80932501F4
:1005A000089521E030E002C0220F331F8A95E2F760
:1005B00020958091250182238093250108951F9322
:1005C000CF93DF93EC01162F88818F3FA1F08F5FCF
:1005D00088838A3011F4862F01D42881273058F07F
:1005E00030E026503040C90163E070E074D40097D9
:1005F00011F4812F4FD4DF91CF911F91089585E0A1
:100600008093680086E980936D0010926C008DE302
:1006100080936B0084B1827C84B985B18D6385B988
:100620008AB189768AB98BB186698BB90895809130
:10063000150180FF04C08091160187FD03C0109250
:10064000140107C080911401803518F48F5F8093E6
:1006500014018091160184FF04C087E291E064E0F8
:10066000AEDF8091150182FF04C088E291E065E071
:10067000A6DF8091150185FF04C08AE291E066E063
:100680009EDF8091150184FF04C089E291E067E05C
:1006900096DF0895DF92EF92FF920F931F9313B1AD
:1006A00088E318271D7309B1067994E128E30EC089
:1006B000E9EFF0E03197F1F700C0000083B1822745
:1006C0008D73182389B10823915029F0112381F7E4
:1006D000002371F73BC0112311F40023B1F1E09026
:1006E0001501E094E122F0901601F094F02280913F
:1006F0001401803520F0FEEFEF228FE7F822DF2C87
:10070000F1FE02C080E01AD2D2FE02C081E016D211
:10071000D4FE02C084E012D2F7FE02C082E00ED204
:10072000E0FE02C083E00AD2E2FE02C085E006D20B
:10073000E3FE02C088E002D2E4FE02C087E0FED100
:10074000E5FE04C086E0FAD101C0102F909115019A
:10075000992321F4809116018823A1F0812F80959F
:100760008923902F909520911601922394FF02C027
:100770001092270182FF02C01092280184FF02C05C
:100780001092290110931501009316011F910F91EA
:10079000FF90EF90DF90089581E0909114019035E3
:1007A00008F080E00895882329F483B198E389272D
:1007B0008D73089589B18679089518951895EF92EB
:1007C000FF920F931F93DF93CF930F92CDB7DEB7B6
:1007D00084E3E82E81E0F82E10E000E0812F64D35E
:1007E000982F812F8F5F99835FD31E5F99819436F5
:1007F00008F09AE08C3308F080E0F7019083818361
:10080000128213821482802FCCDE0F5F85E090E08D
:10081000E80EF91E183011F710922C0181E0809338
:100820002F010F90CF91DF911F910F91FF90EF90CB
:10083000089580912D0161E0823008F460E090918C
:100840002E0180FD06C0892F8E5F923038F08F5FB9
:1008500005C08DE0891B923008F08150C5DC0895F9
:10086000282F30E0F901EE0FFF1FEE0FFF1FE20F00
:10087000F31FEC5CFE4F9281992311F08AE20DC0C8
:1008800020912C0130E002C0359527958A95E2F73A
:1008900020FF02C08DE301C080E2B6DC0895EF9234
:1008A000FF920F931F93DF93CF9300D000D0CDB76B
:1008B000DEB7F82E2FB7F89490E0FC01EE0FFF1F83
:1008C000EE0FFF1FE80FF91FEC5CFE4F0081E18087
:1008D0002FBF8F2D81706F2D6695880F880F880F21
:1008E00083DC8F2D823038F057DF882351F487E185
:1008F00091E09CDC80C0FF20B9F482E485DC80E0DC
:1009000006C08F2D823081F487E57EDC82E0A8DF8F
:10091000802F90E0BE016F5F7F4F4AE050E002D32E
:100920000A3008F045C042C080E26EDC8E2D90E0B7
:10093000BE016F5F7F4F4AE050E0F4D28E2D8A30C7
:1009400040F4E981F0E0E55DFF4F84915DDC8FE4E8
:100950000BC0EA81F0E0E55DFF4F849155DCE98151
:10096000F0E0E55DFF4F84914FDC8AE34DDC802FA2
:1009700090E0BE016F5F7F4F4AE050E0D3D20A3073
:1009800040F4E981F0E0E55DFF4F84913DDC8FE4C8
:100990000BC0EA81F0E0E55DFF4F849135DCE98131
:1009A000F0E0E55DFF4F84912FDC17C080E32CDC85
:1009B0008E010F5F1F4FC80139DC8AE325DC8E2DC5
:1009C00090E0B8014AE050E0ADD28E2D8A3010F4AC
:1009D00080E31ADCCE01019629DC8F2D813019F4D9
:1009E0003FDF87E007C08F2D833019F439DF86E0C1
:1009F00001C080E209DC0F900F900F900F90CF9113
:100A0000DF911F910F91FF90EF900895CF93DF93A7
:100A100080E4DADBC0E0D0E0FE01EB59FF4F8491C7
:100A2000DBDB2196C034D105B9F7C9DEDF91CF9168
:100A30000895CF92DF92EF92FF920F931F93DF936F
:100A4000CF930F92CDB7DEB780912B01882309F0A9
:100A50006BC0A2DE882381F480914001882321F4B9
:100A600080914501882351F0109240011092450178
:100A700081E080932F0102C014E001C012E000E089
:100A8000FF24F394EFB6F894202F30E0F901EE0F35
:100A9000FF1FEE0FFF1FE20FF31FEC5CFE4F838181
:100AA0008823B9F0F0922B0156E3C52E51E0D52EE4
:100AB00000E0F6011082802F74DD0F5F25E030E04A
:100AC000C20ED31E0430A9F7F0922F0187E490E004
:100AD000D4DCEFBE0F5F0117A8F28FB7F894F09047
:100AE0002F0110922F018FBF00E311E045E3C42EC8
:100AF00041E0D42E90E0FF2031F4F8012081F6018E
:100B00008081281741F0892F9983C9DEF601808101
:100B1000F801808399819F5F0F5F1F4F25E030E0D0
:100B2000C20ED31E943039F70F90CF91DF911F91F1
:100B30000F91FF90EF90DF90CF900895FF920F9369
:100B40001F93082F80912B01813009F499C08130C7
:100B500020F0823009F038C19BC01FB7F894FF2401
:100B6000F394F0922F010230A1F1033030F400230E
:100B700071F0013009F02DC11BC0073009F44BC0E2
:100B8000083009F41FC1033009F023C133C080913C
:100B90003701882309F01DC186E490E06EDC80E017
:100BA00000DD81E0F1DC10923601F0923B0111C1D1
:100BB00080913C01882309F00CC186E490E05DDC63
:100BC00081E0EFDC80E0E0DC10923B010093360135
:100BD00000C180914101882309F0FBC086E490E0C8
:100BE0004CDC82E0DEDC83E0CFDC10924001F0924E
:100BF0004501EFC080914601882309F0EAC086E4F0
:100C000090E03BDC83E0CDDC82E0BEDC109245016D
:100C1000F0924001DEC020912C012223E1F4E6E3B2
:100C2000F1E080E090E040E021E030E050815523A9
:100C300011F420E030E0082E02C0220F331F0A9486
:100C4000E2F7422B1082019635968430910561F7C8
:100C500040932C01BEC0E6E3F1E080E090E030E09C
:100C600061E0A901082E02C0559547950A94E2F764
:100C700040FD6083019635968430910591F7A9C0B7
:100C8000083009F0A7C01FB7F89410922B019AC042
:100C90001FB7F894E02FF0E0E930F10508F099C0B3
:100CA000E65EFF4F099480912D01882399F0109200
:100CB0002D011BC080912D01813061F081E013C0B6
:100CC00080912D01823031F082E00DC080912D01A4
:100CD000833041F480912E018F5F80932E01843008
:100CE00020F46AC083E080932D0110922E0164C02D
:100CF00090912E0180912D0190FD03C080FD0CC0CC
:100D000011C080FD0DC010C090912E0180912D0169
:100D100090FD04C080FD06C026EF07C080FD04C022
:100D20002FEF03C02AE001C021E080912D01923015
:100D300088F490E0FC01EE0FFF1FEE0FFF1FE80F9D
:100D4000F91FEC5CFE4F8081820F80838C3390F022
:100D5000108210C090E0FC01EE0FFF1FEE0FFF1F8E
:100D6000E80FF91FEC5CFE4F8181820F81838C3389
:100D700008F0118280912D011EC020912D0181E08B
:100D80008227482F50E030E0FA01EE0FFF1FEE0FF0
:100D9000FF1FE40FF51FEC5CFE4FD901AA0FBB1F2C
:100DA000AA0FBB1FA20FB31FAC5CBE4F9C919083D8
:100DB00011969C91918373DD3CDD0BC010922B0149
:100DC0008CE002DAFCDC05C01FB7F894F8DC109266
:100DD0002B011FBF1F910F91FF9008951F93CF9379
:100DE000DF9390912B01923020F0923009F04EC0A9
:100DF00019C0873009F04AC010922C0182E080931C
:100E00002B0110922D0110922E01C6E3D1E010E0CB
:100E10001882812FC6DB1F5F25961430C9F78EE03C
:100E2000D3D933C08730A1F410922B01C4E3D1E0B1
:100E300010E0812F688143D0812F8F5F69813FD07F
:100E40001E5F25961830A9F78CE0BED9B8DC1EC00D
:100E50008630E1F4C4E3D1E010E020912D011217B7
:100E600081F030E0F901EE0FFF1FEE0FFF1FE20FE0
:100E7000F31FEC5CFE4F8081888381818983812F01
:100E80000EDD1F5F2596143041F7D3DCDF91CF9143
:100E90001F91089590912B01923029F4982F94502E
:100EA000923008F44BDE08952FB7F894F999FECFED
:100EB00090E092BD81BDF89A80B52FBF08952FB7FD
:100EC000F894F999FECF90E092BD81BD60BDFA9A89
:100ED000F99A2FBF089597FB092E07260AD077FDB0
:100EE00004D00CD006D000201AF4709561957F4F85
:100EF0000895F6F7909581959F4F0895AA1BBB1B07
:100F000051E107C0AA1FBB1FA617B70710F0A61B09
:100F1000B70B881F991F5A95A9F780959095BC012A
:100F2000CD010895FB019F01E8944230BCF04532A9
:100F3000ACF44A3029F497FB1EF4909581959F4FAD
:100F4000642F7727DBDF805D8A330CF0895D819326
:100F5000CB010097A9F716F45DE251931082C90105
:100F600000C0DC01FC01672F71917723E1F7329714
:100F700004C07C916D9370836291AE17BF07C8F374
:060F80000895F894FFCF74
:100F8600250024004025002400802B002A00202B69
:100F9600002A004050018020202020202020200010
:00000001FF
